{
  "_format": "hh-sol-artifact-1",
  "contractName": "Box",
  "sourceName": "contracts/Box.sol",
  "abi": [
    {
      "inputs": [
        {
          "internalType": "uint256",
          "name": "initialValue",
          "type": "uint256"
        }
      ],
      "stateMutability": "nonpayable",
      "type": "constructor"
    },
    {
      "anonymous": false,
      "inputs": [
        {
          "indexed": true,
          "internalType": "address",
          "name": "previousOwner",
          "type": "address"
        },
        {
          "indexed": true,
          "internalType": "address",
          "name": "newOwner",
          "type": "address"
        }
      ],
      "name": "OwnershipTransferred",
      "type": "event"
    },
    {
      "anonymous": false,
      "inputs": [
        {
          "indexed": false,
          "internalType": "uint256",
          "name": "newValue",
          "type": "uint256"
        }
      ],
      "name": "ValueChanged",
      "type": "event"
    },
    {
      "inputs": [],
      "name": "owner",
      "outputs": [
        {
          "internalType": "address",
          "name": "",
          "type": "address"
        }
      ],
      "stateMutability": "view",
      "type": "function"
    },
    {
      "inputs": [],
      "name": "renounceOwnership",
      "outputs": [],
      "stateMutability": "nonpayable",
      "type": "function"
    },
    {
      "inputs": [],
      "name": "retrieve",
      "outputs": [
        {
          "internalType": "uint256",
          "name": "",
          "type": "uint256"
        }
      ],
      "stateMutability": "view",
      "type": "function"
    },
    {
      "inputs": [
        {
          "internalType": "uint256",
          "name": "newValue",
          "type": "uint256"
        }
      ],
      "name": "store",
      "outputs": [],
      "stateMutability": "nonpayable",
      "type": "function"
    },
    {
      "inputs": [
        {
          "internalType": "address",
          "name": "newOwner",
          "type": "address"
        }
      ],
      "name": "transferOwnership",
      "outputs": [],
      "stateMutability": "nonpayable",
      "type": "function"
    }
  ],
  "bytecode": "0x608060405234801561001057600080fd5b50604051610837380380610837833981810160405281019061003291906101ab565b61004e61004361006360201b60201c565b61006b60201b60201c565b61005d8161012f60201b60201c565b50610202565b600033905090565b60008060009054906101000a900473ffffffffffffffffffffffffffffffffffffffff169050816000806101000a81548173ffffffffffffffffffffffffffffffffffffffff021916908373ffffffffffffffffffffffffffffffffffffffff1602179055508173ffffffffffffffffffffffffffffffffffffffff168173ffffffffffffffffffffffffffffffffffffffff167f8be0079c531659141344cd1fd0a4f28419497f9722a3daafe3b4186f6b6457e060405160405180910390a35050565b806001819055507f93fe6d397c74fdf1402a8b72e47b68512f0510d7b98a4bc4cbdf6ac7108b3c598160405161016591906101e7565b60405180910390a150565b600080fd5b6000819050919050565b61018881610175565b811461019357600080fd5b50565b6000815190506101a58161017f565b92915050565b6000602082840312156101c1576101c0610170565b5b60006101cf84828501610196565b91505092915050565b6101e181610175565b82525050565b60006020820190506101fc60008301846101d8565b92915050565b610626806102116000396000f3fe608060405234801561001057600080fd5b50600436106100575760003560e01c80632e64cec11461005c5780636057361d1461007a578063715018a6146100965780638da5cb5b146100a0578063f2fde38b146100be575b600080fd5b6100646100da565b60405161007191906103b3565b60405180910390f35b610094600480360381019061008f91906103ff565b6100e4565b005b61009e610125565b005b6100a86101ad565b6040516100b5919061046d565b60405180910390f35b6100d860048036038101906100d391906104b4565b6101d6565b005b6000600154905090565b806001819055507f93fe6d397c74fdf1402a8b72e47b68512f0510d7b98a4bc4cbdf6ac7108b3c598160405161011a91906103b3565b60405180910390a150565b61012d6102ce565b73ffffffffffffffffffffffffffffffffffffffff1661014b6101ad565b73ffffffffffffffffffffffffffffffffffffffff16146101a1576040517f08c379a00000000000000000000000000000000000000000000000000000000081526004016101989061053e565b60405180910390fd5b6101ab60006102d6565b565b60008060009054906101000a900473ffffffffffffffffffffffffffffffffffffffff16905090565b6101de6102ce565b73ffffffffffffffffffffffffffffffffffffffff166101fc6101ad565b73ffffffffffffffffffffffffffffffffffffffff1614610252576040517f08c379a00000000000000000000000000000000000000000000000000000000081526004016102499061053e565b60405180910390fd5b600073ffffffffffffffffffffffffffffffffffffffff168173ffffffffffffffffffffffffffffffffffffffff1614156102c2576040517f08c379a00000000000000000000000000000000000000000000000000000000081526004016102b9906105d0565b60405180910390fd5b6102cb816102d6565b50565b600033905090565b60008060009054906101000a900473ffffffffffffffffffffffffffffffffffffffff169050816000806101000a81548173ffffffffffffffffffffffffffffffffffffffff021916908373ffffffffffffffffffffffffffffffffffffffff1602179055508173ffffffffffffffffffffffffffffffffffffffff168173ffffffffffffffffffffffffffffffffffffffff167f8be0079c531659141344cd1fd0a4f28419497f9722a3daafe3b4186f6b6457e060405160405180910390a35050565b6000819050919050565b6103ad8161039a565b82525050565b60006020820190506103c860008301846103a4565b92915050565b600080fd5b6103dc8161039a565b81146103e757600080fd5b50565b6000813590506103f9816103d3565b92915050565b600060208284031215610415576104146103ce565b5b6000610423848285016103ea565b91505092915050565b600073ffffffffffffffffffffffffffffffffffffffff82169050919050565b60006104578261042c565b9050919050565b6104678161044c565b82525050565b6000602082019050610482600083018461045e565b92915050565b6104918161044c565b811461049c57600080fd5b50565b6000813590506104ae81610488565b92915050565b6000602082840312156104ca576104c96103ce565b5b60006104d88482850161049f565b91505092915050565b600082825260208201905092915050565b7f4f776e61626c653a2063616c6c6572206973206e6f7420746865206f776e6572600082015250565b60006105286020836104e1565b9150610533826104f2565b602082019050919050565b600060208201905081810360008301526105578161051b565b9050919050565b7f4f776e61626c653a206e6577206f776e657220697320746865207a65726f206160008201527f6464726573730000000000000000000000000000000000000000000000000000602082015250565b60006105ba6026836104e1565b91506105c58261055e565b604082019050919050565b600060208201905081810360008301526105e9816105ad565b905091905056fea264697066735822122069feac76235abbbcecd95a998e67c16a0e9bfec409cfbbb392b37b649e59f1ed64736f6c63430008080033",
  "linkReferences": {},
  "deployedLinkReferences": {}
}