{
  "_format": "hh-sol-artifact-1",
  "contractName": "GovernorContract",
  "sourceName": "contracts/governance_standard/GovernorContract.sol",
  "abi": [
    {
      "inputs": [
        {
          "internalType": "contract IVotes",
          "name": "_token",
          "type": "address"
        },
        {
          "internalType": "contract TimelockController",
          "name": "_timelock",
          "type": "address"
        },
        {
          "internalType": "uint256",
          "name": "_votingDelay",
          "type": "uint256"
        },
        {
          "internalType": "uint256",
          "name": "_votingPeriod",
          "type": "uint256"
        },
        {
          "internalType": "uint256",
          "name": "_quorumPercentage",
          "type": "uint256"
        }
      ],
      "stateMutability": "nonpayable",
      "type": "constructor"
    },
    {
      "anonymous": false,
      "inputs": [
        {
          "indexed": false,
          "internalType": "uint256",
          "name": "proposalId",
          "type": "uint256"
        }
      ],
      "name": "ProposalCanceled",
      "type": "event"
    },
    {
      "anonymous": false,
      "inputs": [
        {
          "indexed": false,
          "internalType": "uint256",
          "name": "proposalId",
          "type": "uint256"
        },
        {
          "indexed": false,
          "internalType": "address",
          "name": "proposer",
          "type": "address"
        },
        {
          "indexed": false,
          "internalType": "address[]",
          "name": "targets",
          "type": "address[]"
        },
        {
          "indexed": false,
          "internalType": "uint256[]",
          "name": "values",
          "type": "uint256[]"
        },
        {
          "indexed": false,
          "internalType": "string[]",
          "name": "signatures",
          "type": "string[]"
        },
        {
          "indexed": false,
          "internalType": "bytes[]",
          "name": "calldatas",
          "type": "bytes[]"
        },
        {
          "indexed": false,
          "internalType": "uint256",
          "name": "startBlock",
          "type": "uint256"
        },
        {
          "indexed": false,
          "internalType": "uint256",
          "name": "endBlock",
          "type": "uint256"
        },
        {
          "indexed": false,
          "internalType": "string",
          "name": "description",
          "type": "string"
        }
      ],
      "name": "ProposalCreated",
      "type": "event"
    },
    {
      "anonymous": false,
      "inputs": [
        {
          "indexed": false,
          "internalType": "uint256",
          "name": "proposalId",
          "type": "uint256"
        }
      ],
      "name": "ProposalExecuted",
      "type": "event"
    },
    {
      "anonymous": false,
      "inputs": [
        {
          "indexed": false,
          "internalType": "uint256",
          "name": "proposalId",
          "type": "uint256"
        },
        {
          "indexed": false,
          "internalType": "uint256",
          "name": "eta",
          "type": "uint256"
        }
      ],
      "name": "ProposalQueued",
      "type": "event"
    },
    {
      "anonymous": false,
      "inputs": [
        {
          "indexed": false,
          "internalType": "uint256",
          "name": "oldProposalThreshold",
          "type": "uint256"
        },
        {
          "indexed": false,
          "internalType": "uint256",
          "name": "newProposalThreshold",
          "type": "uint256"
        }
      ],
      "name": "ProposalThresholdSet",
      "type": "event"
    },
    {
      "anonymous": false,
      "inputs": [
        {
          "indexed": false,
          "internalType": "uint256",
          "name": "oldQuorumNumerator",
          "type": "uint256"
        },
        {
          "indexed": false,
          "internalType": "uint256",
          "name": "newQuorumNumerator",
          "type": "uint256"
        }
      ],
      "name": "QuorumNumeratorUpdated",
      "type": "event"
    },
    {
      "anonymous": false,
      "inputs": [
        {
          "indexed": false,
          "internalType": "address",
          "name": "oldTimelock",
          "type": "address"
        },
        {
          "indexed": false,
          "internalType": "address",
          "name": "newTimelock",
          "type": "address"
        }
      ],
      "name": "TimelockChange",
      "type": "event"
    },
    {
      "anonymous": false,
      "inputs": [
        {
          "indexed": true,
          "internalType": "address",
          "name": "voter",
          "type": "address"
        },
        {
          "indexed": false,
          "internalType": "uint256",
          "name": "proposalId",
          "type": "uint256"
        },
        {
          "indexed": false,
          "internalType": "uint8",
          "name": "support",
          "type": "uint8"
        },
        {
          "indexed": false,
          "internalType": "uint256",
          "name": "weight",
          "type": "uint256"
        },
        {
          "indexed": false,
          "internalType": "string",
          "name": "reason",
          "type": "string"
        }
      ],
      "name": "VoteCast",
      "type": "event"
    },
    {
      "anonymous": false,
      "inputs": [
        {
          "indexed": false,
          "internalType": "uint256",
          "name": "oldVotingDelay",
          "type": "uint256"
        },
        {
          "indexed": false,
          "internalType": "uint256",
          "name": "newVotingDelay",
          "type": "uint256"
        }
      ],
      "name": "VotingDelaySet",
      "type": "event"
    },
    {
      "anonymous": false,
      "inputs": [
        {
          "indexed": false,
          "internalType": "uint256",
          "name": "oldVotingPeriod",
          "type": "uint256"
        },
        {
          "indexed": false,
          "internalType": "uint256",
          "name": "newVotingPeriod",
          "type": "uint256"
        }
      ],
      "name": "VotingPeriodSet",
      "type": "event"
    },
    {
      "inputs": [],
      "name": "BALLOT_TYPEHASH",
      "outputs": [
        {
          "internalType": "bytes32",
          "name": "",
          "type": "bytes32"
        }
      ],
      "stateMutability": "view",
      "type": "function"
    },
    {
      "inputs": [],
      "name": "COUNTING_MODE",
      "outputs": [
        {
          "internalType": "string",
          "name": "",
          "type": "string"
        }
      ],
      "stateMutability": "pure",
      "type": "function"
    },
    {
      "inputs": [
        {
          "internalType": "uint256",
          "name": "proposalId",
          "type": "uint256"
        },
        {
          "internalType": "uint8",
          "name": "support",
          "type": "uint8"
        }
      ],
      "name": "castVote",
      "outputs": [
        {
          "internalType": "uint256",
          "name": "",
          "type": "uint256"
        }
      ],
      "stateMutability": "nonpayable",
      "type": "function"
    },
    {
      "inputs": [
        {
          "internalType": "uint256",
          "name": "proposalId",
          "type": "uint256"
        },
        {
          "internalType": "uint8",
          "name": "support",
          "type": "uint8"
        },
        {
          "internalType": "uint8",
          "name": "v",
          "type": "uint8"
        },
        {
          "internalType": "bytes32",
          "name": "r",
          "type": "bytes32"
        },
        {
          "internalType": "bytes32",
          "name": "s",
          "type": "bytes32"
        }
      ],
      "name": "castVoteBySig",
      "outputs": [
        {
          "internalType": "uint256",
          "name": "",
          "type": "uint256"
        }
      ],
      "stateMutability": "nonpayable",
      "type": "function"
    },
    {
      "inputs": [
        {
          "internalType": "uint256",
          "name": "proposalId",
          "type": "uint256"
        },
        {
          "internalType": "uint8",
          "name": "support",
          "type": "uint8"
        },
        {
          "internalType": "string",
          "name": "reason",
          "type": "string"
        }
      ],
      "name": "castVoteWithReason",
      "outputs": [
        {
          "internalType": "uint256",
          "name": "",
          "type": "uint256"
        }
      ],
      "stateMutability": "nonpayable",
      "type": "function"
    },
    {
      "inputs": [
        {
          "internalType": "address[]",
          "name": "targets",
          "type": "address[]"
        },
        {
          "internalType": "uint256[]",
          "name": "values",
          "type": "uint256[]"
        },
        {
          "internalType": "bytes[]",
          "name": "calldatas",
          "type": "bytes[]"
        },
        {
          "internalType": "bytes32",
          "name": "descriptionHash",
          "type": "bytes32"
        }
      ],
      "name": "execute",
      "outputs": [
        {
          "internalType": "uint256",
          "name": "",
          "type": "uint256"
        }
      ],
      "stateMutability": "payable",
      "type": "function"
    },
    {
      "inputs": [
        {
          "internalType": "address",
          "name": "account",
          "type": "address"
        },
        {
          "internalType": "uint256",
          "name": "blockNumber",
          "type": "uint256"
        }
      ],
      "name": "getVotes",
      "outputs": [
        {
          "internalType": "uint256",
          "name": "",
          "type": "uint256"
        }
      ],
      "stateMutability": "view",
      "type": "function"
    },
    {
      "inputs": [
        {
          "internalType": "uint256",
          "name": "proposalId",
          "type": "uint256"
        },
        {
          "internalType": "address",
          "name": "account",
          "type": "address"
        }
      ],
      "name": "hasVoted",
      "outputs": [
        {
          "internalType": "bool",
          "name": "",
          "type": "bool"
        }
      ],
      "stateMutability": "view",
      "type": "function"
    },
    {
      "inputs": [
        {
          "internalType": "address[]",
          "name": "targets",
          "type": "address[]"
        },
        {
          "internalType": "uint256[]",
          "name": "values",
          "type": "uint256[]"
        },
        {
          "internalType": "bytes[]",
          "name": "calldatas",
          "type": "bytes[]"
        },
        {
          "internalType": "bytes32",
          "name": "descriptionHash",
          "type": "bytes32"
        }
      ],
      "name": "hashProposal",
      "outputs": [
        {
          "internalType": "uint256",
          "name": "",
          "type": "uint256"
        }
      ],
      "stateMutability": "pure",
      "type": "function"
    },
    {
      "inputs": [],
      "name": "name",
      "outputs": [
        {
          "internalType": "string",
          "name": "",
          "type": "string"
        }
      ],
      "stateMutability": "view",
      "type": "function"
    },
    {
      "inputs": [
        {
          "internalType": "uint256",
          "name": "",
          "type": "uint256"
        }
      ],
      "name": "newProposals",
      "outputs": [
        {
          "internalType": "uint256",
          "name": "",
          "type": "uint256"
        }
      ],
      "stateMutability": "view",
      "type": "function"
    },
    {
      "inputs": [
        {
          "internalType": "uint256",
          "name": "proposalId",
          "type": "uint256"
        }
      ],
      "name": "proposalDeadline",
      "outputs": [
        {
          "internalType": "uint256",
          "name": "",
          "type": "uint256"
        }
      ],
      "stateMutability": "view",
      "type": "function"
    },
    {
      "inputs": [
        {
          "internalType": "uint256",
          "name": "proposalId",
          "type": "uint256"
        }
      ],
      "name": "proposalEta",
      "outputs": [
        {
          "internalType": "uint256",
          "name": "",
          "type": "uint256"
        }
      ],
      "stateMutability": "view",
      "type": "function"
    },
    {
      "inputs": [
        {
          "internalType": "uint256",
          "name": "proposalId",
          "type": "uint256"
        }
      ],
      "name": "proposalSnapshot",
      "outputs": [
        {
          "internalType": "uint256",
          "name": "",
          "type": "uint256"
        }
      ],
      "stateMutability": "view",
      "type": "function"
    },
    {
      "inputs": [],
      "name": "proposalThreshold",
      "outputs": [
        {
          "internalType": "uint256",
          "name": "",
          "type": "uint256"
        }
      ],
      "stateMutability": "view",
      "type": "function"
    },
    {
      "inputs": [
        {
          "internalType": "uint256",
          "name": "proposalId",
          "type": "uint256"
        }
      ],
      "name": "proposalVotes",
      "outputs": [
        {
          "internalType": "uint256",
          "name": "againstVotes",
          "type": "uint256"
        },
        {
          "internalType": "uint256",
          "name": "forVotes",
          "type": "uint256"
        },
        {
          "internalType": "uint256",
          "name": "abstainVotes",
          "type": "uint256"
        }
      ],
      "stateMutability": "view",
      "type": "function"
    },
    {
      "inputs": [
        {
          "internalType": "address[]",
          "name": "targets",
          "type": "address[]"
        },
        {
          "internalType": "uint256[]",
          "name": "values",
          "type": "uint256[]"
        },
        {
          "internalType": "bytes[]",
          "name": "calldatas",
          "type": "bytes[]"
        },
        {
          "internalType": "string",
          "name": "description",
          "type": "string"
        }
      ],
      "name": "propose",
      "outputs": [
        {
          "internalType": "uint256",
          "name": "",
          "type": "uint256"
        }
      ],
      "stateMutability": "nonpayable",
      "type": "function"
    },
    {
      "inputs": [
        {
          "internalType": "address[]",
          "name": "targets",
          "type": "address[]"
        },
        {
          "internalType": "uint256[]",
          "name": "values",
          "type": "uint256[]"
        },
        {
          "internalType": "bytes[]",
          "name": "calldatas",
          "type": "bytes[]"
        },
        {
          "internalType": "bytes32",
          "name": "descriptionHash",
          "type": "bytes32"
        }
      ],
      "name": "queue",
      "outputs": [
        {
          "internalType": "uint256",
          "name": "",
          "type": "uint256"
        }
      ],
      "stateMutability": "nonpayable",
      "type": "function"
    },
    {
      "inputs": [
        {
          "internalType": "uint256",
          "name": "blockNumber",
          "type": "uint256"
        }
      ],
      "name": "quorum",
      "outputs": [
        {
          "internalType": "uint256",
          "name": "",
          "type": "uint256"
        }
      ],
      "stateMutability": "view",
      "type": "function"
    },
    {
      "inputs": [],
      "name": "quorumDenominator",
      "outputs": [
        {
          "internalType": "uint256",
          "name": "",
          "type": "uint256"
        }
      ],
      "stateMutability": "view",
      "type": "function"
    },
    {
      "inputs": [],
      "name": "quorumNumerator",
      "outputs": [
        {
          "internalType": "uint256",
          "name": "",
          "type": "uint256"
        }
      ],
      "stateMutability": "view",
      "type": "function"
    },
    {
      "inputs": [
        {
          "internalType": "address",
          "name": "target",
          "type": "address"
        },
        {
          "internalType": "uint256",
          "name": "value",
          "type": "uint256"
        },
        {
          "internalType": "bytes",
          "name": "data",
          "type": "bytes"
        }
      ],
      "name": "relay",
      "outputs": [],
      "stateMutability": "nonpayable",
      "type": "function"
    },
    {
      "inputs": [
        {
          "internalType": "uint256",
          "name": "newProposalThreshold",
          "type": "uint256"
        }
      ],
      "name": "setProposalThreshold",
      "outputs": [],
      "stateMutability": "nonpayable",
      "type": "function"
    },
    {
      "inputs": [
        {
          "internalType": "uint256",
          "name": "newVotingDelay",
          "type": "uint256"
        }
      ],
      "name": "setVotingDelay",
      "outputs": [],
      "stateMutability": "nonpayable",
      "type": "function"
    },
    {
      "inputs": [
        {
          "internalType": "uint256",
          "name": "newVotingPeriod",
          "type": "uint256"
        }
      ],
      "name": "setVotingPeriod",
      "outputs": [],
      "stateMutability": "nonpayable",
      "type": "function"
    },
    {
      "inputs": [
        {
          "internalType": "uint256",
          "name": "proposalId",
          "type": "uint256"
        }
      ],
      "name": "state",
      "outputs": [
        {
          "internalType": "enum IGovernor.ProposalState",
          "name": "",
          "type": "uint8"
        }
      ],
      "stateMutability": "view",
      "type": "function"
    },
    {
      "inputs": [
        {
          "internalType": "bytes4",
          "name": "interfaceId",
          "type": "bytes4"
        }
      ],
      "name": "supportsInterface",
      "outputs": [
        {
          "internalType": "bool",
          "name": "",
          "type": "bool"
        }
      ],
      "stateMutability": "view",
      "type": "function"
    },
    {
      "inputs": [],
      "name": "timelock",
      "outputs": [
        {
          "internalType": "address",
          "name": "",
          "type": "address"
        }
      ],
      "stateMutability": "view",
      "type": "function"
    },
    {
      "inputs": [],
      "name": "token",
      "outputs": [
        {
          "internalType": "contract IVotes",
          "name": "",
          "type": "address"
        }
      ],
      "stateMutability": "view",
      "type": "function"
    },
    {
      "inputs": [
        {
          "internalType": "uint256",
          "name": "newQuorumNumerator",
          "type": "uint256"
        }
      ],
      "name": "updateQuorumNumerator",
      "outputs": [],
      "stateMutability": "nonpayable",
      "type": "function"
    },
    {
      "inputs": [
        {
          "internalType": "contract TimelockController",
          "name": "newTimelock",
          "type": "address"
        }
      ],
      "name": "updateTimelock",
      "outputs": [],
      "stateMutability": "nonpayable",
      "type": "function"
    },
    {
      "inputs": [],
      "name": "version",
      "outputs": [
        {
          "internalType": "string",
          "name": "",
          "type": "string"
        }
      ],
      "stateMutability": "view",
      "type": "function"
    },
    {
      "inputs": [],
      "name": "votingDelay",
      "outputs": [
        {
          "internalType": "uint256",
          "name": "",
          "type": "uint256"
        }
      ],
      "stateMutability": "view",
      "type": "function"
    },
    {
      "inputs": [],
      "name": "votingPeriod",
      "outputs": [
        {
          "internalType": "uint256",
          "name": "",
          "type": "uint256"
        }
      ],
      "stateMutability": "view",
      "type": "function"
    },
    {
      "stateMutability": "payable",
      "type": "receive"
    }
  ],
  "bytecode": "0x6101606040523480156200001257600080fd5b5060405162005c5138038062005c51833981810160405281019062000038919062000695565b838186858560006040518060400160405280601081526020017f476f7665726e6f72436f6e7472616374000000000000000000000000000000008152508062000086620001f360201b60201c565b60008280519060200120905060008280519060200120905060007f8b73c3c69bb8fe3d512ecc4cf759cc79239f7b179b0ffacaa9a75d522b39400f90508260e081815250508161010081815250504660a08181525050620000ef8184846200023060201b60201c565b608081815250503073ffffffffffffffffffffffffffffffffffffffff1660c08173ffffffffffffffffffffffffffffffffffffffff1660601b815250508061012081815250505050505050806000908051906020019062000153929190620004d3565b505062000166836200026c60201b60201c565b6200017782620002b360201b60201c565b62000188816200034060201b60201c565b5050508073ffffffffffffffffffffffffffffffffffffffff166101408173ffffffffffffffffffffffffffffffffffffffff1660601b8152505050620001d5816200038760201b60201c565b50620001e7816200042960201b60201c565b505050505050620009dd565b60606040518060400160405280600181526020017f3100000000000000000000000000000000000000000000000000000000000000815250905090565b600083838346306040516020016200024d9594939291906200075a565b6040516020818303038152906040528051906020012090509392505050565b7fc565b045403dc03c2eea82b81a0465edad9e2e7fc4d97e11421c209da93d7a9360025482604051620002a1929190620007b7565b60405180910390a18060028190555050565b60008111620002f9576040517f08c379a0000000000000000000000000000000000000000000000000000000008152600401620002f0906200086b565b60405180910390fd5b7f7e3f7f0708a84de9203036abaa450dccc85ad5ff52f78c170f3edb55cf5e8828600354826040516200032e929190620007b7565b60405180910390a18060038190555050565b7fccb45da8d5717e6c4544694297c4ba5cf151d455c9bb0ed4fc7a38411bc054616004548260405162000375929190620007b7565b60405180910390a18060048190555050565b62000397620004ca60201b60201c565b811115620003dc576040517f08c379a0000000000000000000000000000000000000000000000000000000008152600401620003d39062000929565b60405180910390fd5b60006006549050816006819055507f0553476bf02ef2726e8ce5ced78d63e26e602e4a2257b1f559418e24b463399781836040516200041d929190620007b7565b60405180910390a15050565b7f08f74ea46ef7894f65eabfb5e6e695de773a000b47c529ab559178069b226401600760009054906101000a900473ffffffffffffffffffffffffffffffffffffffff16826040516200047e9291906200094b565b60405180910390a180600760006101000a81548173ffffffffffffffffffffffffffffffffffffffff021916908373ffffffffffffffffffffffffffffffffffffffff16021790555050565b60006064905090565b828054620004e190620009a7565b90600052602060002090601f01602090048101928262000505576000855562000551565b82601f106200052057805160ff191683800117855562000551565b8280016001018555821562000551579182015b828111156200055057825182559160200191906001019062000533565b5b50905062000560919062000564565b5090565b5b808211156200057f57600081600090555060010162000565565b5090565b600080fd5b600073ffffffffffffffffffffffffffffffffffffffff82169050919050565b6000620005b58262000588565b9050919050565b6000620005c982620005a8565b9050919050565b620005db81620005bc565b8114620005e757600080fd5b50565b600081519050620005fb81620005d0565b92915050565b60006200060e8262000588565b9050919050565b6000620006228262000601565b9050919050565b620006348162000615565b81146200064057600080fd5b50565b600081519050620006548162000629565b92915050565b6000819050919050565b6200066f816200065a565b81146200067b57600080fd5b50565b6000815190506200068f8162000664565b92915050565b600080600080600060a08688031215620006b457620006b362000583565b5b6000620006c488828901620005ea565b9550506020620006d78882890162000643565b9450506040620006ea888289016200067e565b9350506060620006fd888289016200067e565b925050608062000710888289016200067e565b9150509295509295909350565b6000819050919050565b62000732816200071d565b82525050565b62000743816200065a565b82525050565b6200075481620005a8565b82525050565b600060a08201905062000771600083018862000727565b62000780602083018762000727565b6200078f604083018662000727565b6200079e606083018562000738565b620007ad608083018462000749565b9695505050505050565b6000604082019050620007ce600083018562000738565b620007dd602083018462000738565b9392505050565b600082825260208201905092915050565b7f476f7665726e6f7253657474696e67733a20766f74696e6720706572696f642060008201527f746f6f206c6f7700000000000000000000000000000000000000000000000000602082015250565b600062000853602783620007e4565b91506200086082620007f5565b604082019050919050565b60006020820190508181036000830152620008868162000844565b9050919050565b7f476f7665726e6f72566f74657351756f72756d4672616374696f6e3a2071756f60008201527f72756d4e756d657261746f72206f7665722071756f72756d44656e6f6d696e6160208201527f746f720000000000000000000000000000000000000000000000000000000000604082015250565b600062000911604383620007e4565b91506200091e826200088d565b606082019050919050565b60006020820190508181036000830152620009448162000902565b9050919050565b600060408201905062000962600083018562000749565b62000971602083018462000749565b9392505050565b7f4e487b7100000000000000000000000000000000000000000000000000000000600052602260045260246000fd5b60006002820490506001821680620009c057607f821691505b60208210811415620009d757620009d662000978565b5b50919050565b60805160a05160c05160601c60e05161010051610120516101405160601c61520562000a4c600039600081816116cf0152818161209c01526121a60152600061242e015260006124700152600061244f01526000612384015260006123da0152600061240301526152056000f3fe6080604052600436106101fd5760003560e01c80637d5e81e21161010d578063c59057e4116100a0578063ea0217cf1161006f578063ea0217cf14610822578063eb9019d41461084b578063ece40cc114610888578063f8ce560a146108b1578063fc0c546a146108ee57610243565b8063c59057e414610764578063d33219b4146107a1578063dd4e2ba5146107cc578063deaaa7cc146107f757610243565b8063ab58fb8e116100dc578063ab58fb8e14610696578063b58131b0146106d3578063c01f9e37146106fe578063c28bc2fa1461073b57610243565b80637d5e81e2146105da57806397c3d33414610617578063a7713a7014610642578063a890c9101461066d57610243565b80633932abb111610190578063544ffc9c1161015f578063544ffc9c146104cd57806354fd4d501461050c578063567813881461053757806370b0f660146105745780637b3c71d31461059d57610243565b80633932abb1146103eb5780633bccf4fd146104165780633e4f49e614610453578063438596321461049057610243565b806306fdde03116101cc57806306fdde0314610316578063160cbed7146103415780632656227d1461037e5780632d63f693146103ae57610243565b8063014796801461024857806301ffc9a71461028557806302a251a3146102c257806306f3f9e6146102ed57610243565b36610243573073ffffffffffffffffffffffffffffffffffffffff16610221610919565b73ffffffffffffffffffffffffffffffffffffffff161461024157600080fd5b005b600080fd5b34801561025457600080fd5b5061026f600480360381019061026a9190612e68565b610928565b60405161027c9190612ea4565b60405180910390f35b34801561029157600080fd5b506102ac60048036038101906102a79190612f17565b61094c565b6040516102b99190612f5f565b60405180910390f35b3480156102ce57600080fd5b506102d761095e565b6040516102e49190612ea4565b60405180910390f35b3480156102f957600080fd5b50610314600480360381019061030f9190612e68565b61096d565b005b34801561032257600080fd5b5061032b6109f5565b6040516103389190613013565b60405180910390f35b34801561034d57600080fd5b506103686004803603810190610363919061346a565b610a87565b6040516103759190612ea4565b60405180910390f35b6103986004803603810190610393919061346a565b610d5f565b6040516103a59190612ea4565b60405180910390f35b3480156103ba57600080fd5b506103d560048036038101906103d09190612e68565b610e92565b6040516103e29190612ea4565b60405180910390f35b3480156103f757600080fd5b50610400610f00565b60405161040d9190612ea4565b60405180910390f35b34801561042257600080fd5b5061043d6004803603810190610438919061355e565b610f0f565b60405161044a9190612ea4565b60405180910390f35b34801561045f57600080fd5b5061047a60048036038101906104759190612e68565b610f99565b6040516104879190613650565b60405180910390f35b34801561049c57600080fd5b506104b760048036038101906104b2919061366b565b610fab565b6040516104c49190612f5f565b60405180910390f35b3480156104d957600080fd5b506104f460048036038101906104ef9190612e68565b611016565b604051610503939291906136ab565b60405180910390f35b34801561051857600080fd5b5061052161104e565b60405161052e9190613013565b60405180910390f35b34801561054357600080fd5b5061055e600480360381019061055991906136e2565b61108b565b60405161056b9190612ea4565b60405180910390f35b34801561058057600080fd5b5061059b60048036038101906105969190612e68565b6110bc565b005b3480156105a957600080fd5b506105c460048036038101906105bf919061377d565b611144565b6040516105d19190612ea4565b60405180910390f35b3480156105e657600080fd5b5061060160048036038101906105fc9190613892565b6111ac565b60405161060e9190612ea4565b60405180910390f35b34801561062357600080fd5b5061062c61120a565b6040516106399190612ea4565b60405180910390f35b34801561064e57600080fd5b50610657611213565b6040516106649190612ea4565b60405180910390f35b34801561067957600080fd5b50610694600480360381019061068f91906139b9565b61121d565b005b3480156106a257600080fd5b506106bd60048036038101906106b89190612e68565b6112a5565b6040516106ca9190612ea4565b60405180910390f35b3480156106df57600080fd5b506106e8611381565b6040516106f59190612ea4565b60405180910390f35b34801561070a57600080fd5b5061072560048036038101906107209190612e68565b611390565b6040516107329190612ea4565b60405180910390f35b34801561074757600080fd5b50610762600480360381019061075d9190613a3c565b6113fe565b005b34801561077057600080fd5b5061078b6004803603810190610786919061346a565b6114d0565b6040516107989190612ea4565b60405180910390f35b3480156107ad57600080fd5b506107b661150c565b6040516107c39190613abf565b60405180910390f35b3480156107d857600080fd5b506107e1611536565b6040516107ee9190613013565b60405180910390f35b34801561080357600080fd5b5061080c611573565b6040516108199190613ae9565b60405180910390f35b34801561082e57600080fd5b5061084960048036038101906108449190612e68565b611597565b005b34801561085757600080fd5b50610872600480360381019061086d9190613b04565b61161f565b60405161087f9190612ea4565b60405180910390f35b34801561089457600080fd5b506108af60048036038101906108aa9190612e68565b611633565b005b3480156108bd57600080fd5b506108d860048036038101906108d39190612e68565b6116bb565b6040516108e59190612ea4565b60405180910390f35b3480156108fa57600080fd5b506109036116cd565b6040516109109190613ba3565b60405180910390f35b60006109236116f1565b905090565b6009818154811061093857600080fd5b906000526020600020016000915090505481565b60006109578261171b565b9050919050565b6000610968611795565b905090565b610975610919565b73ffffffffffffffffffffffffffffffffffffffff1661099361179f565b73ffffffffffffffffffffffffffffffffffffffff16146109e9576040517f08c379a00000000000000000000000000000000000000000000000000000000081526004016109e090613c0a565b60405180910390fd5b6109f2816117a7565b50565b606060008054610a0490613c59565b80601f0160208091040260200160405190810160405280929190818152602001828054610a3090613c59565b8015610a7d5780601f10610a5257610100808354040283529160200191610a7d565b820191906000526020600020905b815481529060010190602001808311610a6057829003601f168201915b5050505050905090565b600080610a96868686866114d0565b905060046007811115610aac57610aab6135d9565b5b610ab582610f99565b6007811115610ac757610ac66135d9565b5b14610b07576040517f08c379a0000000000000000000000000000000000000000000000000000000008152600401610afe90613cfd565b60405180910390fd5b6000600760009054906101000a900473ffffffffffffffffffffffffffffffffffffffff1673ffffffffffffffffffffffffffffffffffffffff1663f27a0c926040518163ffffffff1660e01b815260040160206040518083038186803b158015610b7157600080fd5b505afa158015610b85573d6000803e3d6000fd5b505050506040513d601f19601f82011682018060405250810190610ba99190613d32565b9050600760009054906101000a900473ffffffffffffffffffffffffffffffffffffffff1673ffffffffffffffffffffffffffffffffffffffff1663b1c5f4278888886000896040518663ffffffff1660e01b8152600401610c0f95949392919061403a565b60206040518083038186803b158015610c2757600080fd5b505afa158015610c3b573d6000803e3d6000fd5b505050506040513d601f19601f82011682018060405250810190610c5f91906140b7565b6008600084815260200190815260200160002081905550600760009054906101000a900473ffffffffffffffffffffffffffffffffffffffff1673ffffffffffffffffffffffffffffffffffffffff16638f2a0bb0888888600089876040518763ffffffff1660e01b8152600401610cdc969594939291906140e4565b600060405180830381600087803b158015610cf657600080fd5b505af1158015610d0a573d6000803e3d6000fd5b505050507f9a2e42fd6722813d69113e7d0079d3d940171428df7373df9c7f7617cfda2892828242610d3c9190614189565b604051610d4a9291906141df565b60405180910390a18192505050949350505050565b600080610d6e868686866114d0565b90506000610d7b82610f99565b905060046007811115610d9157610d906135d9565b5b816007811115610da457610da36135d9565b5b1480610dd4575060056007811115610dbf57610dbe6135d9565b5b816007811115610dd257610dd16135d9565b5b145b610e13576040517f08c379a0000000000000000000000000000000000000000000000000000000008152600401610e0a90613cfd565b60405180910390fd5b600180600084815260200190815260200160002060020160006101000a81548160ff0219169083151502179055507f712ae1383f79ac853f8d882153778e0260ef8f03b504e2866e0593e04d2b291f82604051610e709190612ea4565b60405180910390a1610e85828888888861183c565b8192505050949350505050565b6000610eef600160008481526020019081526020016000206000016040518060200160405290816000820160009054906101000a900467ffffffffffffffff1667ffffffffffffffff1667ffffffffffffffff1681525050611850565b67ffffffffffffffff169050919050565b6000610f0a61185e565b905090565b600080610f70610f687f150214d74d59b7d1e90c73fc22ef3d991dd0a76b046543d4d80ab92d2a50328f8989604051602001610f4d93929190614217565b60405160208183030381529060405280519060200120611868565b868686611882565b9050610f8d878288604051806020016040528060008152506118ad565b91505095945050505050565b6000610fa482611a01565b9050919050565b60006005600084815260200190815260200160002060030160008373ffffffffffffffffffffffffffffffffffffffff1673ffffffffffffffffffffffffffffffffffffffff16815260200190815260200160002060009054906101000a900460ff16905092915050565b600080600080600560008681526020019081526020016000209050806000015481600101548260020154935093509350509193909250565b60606040518060400160405280600181526020017f3100000000000000000000000000000000000000000000000000000000000000815250905090565b60008061109661179f565b90506110b3848285604051806020016040528060008152506118ad565b91505092915050565b6110c4610919565b73ffffffffffffffffffffffffffffffffffffffff166110e261179f565b73ffffffffffffffffffffffffffffffffffffffff1614611138576040517f08c379a000000000000000000000000000000000000000000000000000000000815260040161112f90613c0a565b60405180910390fd5b61114181611bf3565b50565b60008061114f61179f565b90506111a186828787878080601f016020809104026020016040519081016040528093929190818152602001838380828437600081840152601f19601f820116905080830192505050505050506118ad565b915050949350505050565b6000808280519060200120905060006111c7878787856114d0565b905060098190806001815401808255809150506001900390600052602060002001600090919091909150556111fe87878787611c38565b92505050949350505050565b60006064905090565b6000600654905090565b611225610919565b73ffffffffffffffffffffffffffffffffffffffff1661124361179f565b73ffffffffffffffffffffffffffffffffffffffff1614611299576040517f08c379a000000000000000000000000000000000000000000000000000000000815260040161129090613c0a565b60405180910390fd5b6112a281611f38565b50565b600080600760009054906101000a900473ffffffffffffffffffffffffffffffffffffffff1673ffffffffffffffffffffffffffffffffffffffff1663d45c443560086000868152602001908152602001600020546040518263ffffffff1660e01b81526004016113169190613ae9565b60206040518083038186803b15801561132e57600080fd5b505afa158015611342573d6000803e3d6000fd5b505050506040513d601f19601f820116820180604052508101906113669190613d32565b9050600181146113765780611379565b60005b915050919050565b600061138b611fd7565b905090565b60006113ed600160008481526020019081526020016000206001016040518060200160405290816000820160009054906101000a900467ffffffffffffffff1667ffffffffffffffff1667ffffffffffffffff1681525050611850565b67ffffffffffffffff169050919050565b611406610919565b73ffffffffffffffffffffffffffffffffffffffff1661142461179f565b73ffffffffffffffffffffffffffffffffffffffff161461147a576040517f08c379a000000000000000000000000000000000000000000000000000000000815260040161147190613c0a565b60405180910390fd5b6114c98483838080601f016020809104026020016040519081016040528093929190818152602001838380828437600081840152601f19601f8201169050808301925050505050505085611fe1565b5050505050565b6000848484846040516020016114e9949392919061424e565b6040516020818303038152906040528051906020012060001c9050949350505050565b6000600760009054906101000a900473ffffffffffffffffffffffffffffffffffffffff16905090565b60606040518060400160405280602081526020017f737570706f72743d627261766f2671756f72756d3d666f722c6162737461696e815250905090565b7f150214d74d59b7d1e90c73fc22ef3d991dd0a76b046543d4d80ab92d2a50328f81565b61159f610919565b73ffffffffffffffffffffffffffffffffffffffff166115bd61179f565b73ffffffffffffffffffffffffffffffffffffffff1614611613576040517f08c379a000000000000000000000000000000000000000000000000000000000815260040161160a90613c0a565b60405180910390fd5b61161c81612010565b50565b600061162b8383612098565b905092915050565b61163b610919565b73ffffffffffffffffffffffffffffffffffffffff1661165961179f565b73ffffffffffffffffffffffffffffffffffffffff16146116af576040517f08c379a00000000000000000000000000000000000000000000000000000000081526004016116a690613c0a565b60405180910390fd5b6116b88161214d565b50565b60006116c682612192565b9050919050565b7f000000000000000000000000000000000000000000000000000000000000000081565b6000600760009054906101000a900473ffffffffffffffffffffffffffffffffffffffff16905090565b60007f6e665ced000000000000000000000000000000000000000000000000000000007bffffffffffffffffffffffffffffffffffffffffffffffffffffffff1916827bffffffffffffffffffffffffffffffffffffffffffffffffffffffff1916148061178e575061178d82612268565b5b9050919050565b6000600354905090565b600033905090565b6117af61120a565b8111156117f1576040517f08c379a00000000000000000000000000000000000000000000000000000000081526004016117e890614340565b60405180910390fd5b60006006549050816006819055507f0553476bf02ef2726e8ce5ced78d63e26e602e4a2257b1f559418e24b463399781836040516118309291906141df565b60405180910390a15050565b61184985858585856122e2565b5050505050565b600081600001519050919050565b6000600254905090565b600061187b611875612380565b8361249a565b9050919050565b6000806000611893878787876124cd565b915091506118a0816125da565b8192505050949350505050565b600080600160008781526020019081526020016000209050600160078111156118d9576118d86135d9565b5b6118e287610f99565b60078111156118f4576118f36135d9565b5b14611934576040517f08c379a000000000000000000000000000000000000000000000000000000000815260040161192b906143d2565b60405180910390fd5b600061199286611983846000016040518060200160405290816000820160009054906101000a900467ffffffffffffffff1667ffffffffffffffff1667ffffffffffffffff1681525050611850565b67ffffffffffffffff1661161f565b90506119a0878787846127af565b8573ffffffffffffffffffffffffffffffffffffffff167fb8e138887d0aa13bab447e82de9d5c1777041ecd21ca36ba824ff1e6c07ddda4888784886040516119ec94939291906143f2565b60405180910390a28092505050949350505050565b600080611a0d836129b5565b905060046007811115611a2357611a226135d9565b5b816007811115611a3657611a356135d9565b5b14611a445780915050611bee565b6000600860008581526020019081526020016000205490506000801b811415611a71578192505050611bee565b600760009054906101000a900473ffffffffffffffffffffffffffffffffffffffff1673ffffffffffffffffffffffffffffffffffffffff16632ab0f529826040518263ffffffff1660e01b8152600401611acc9190613ae9565b60206040518083038186803b158015611ae457600080fd5b505afa158015611af8573d6000803e3d6000fd5b505050506040513d601f19601f82011682018060405250810190611b1c919061446a565b15611b2c57600792505050611bee565b600760009054906101000a900473ffffffffffffffffffffffffffffffffffffffff1673ffffffffffffffffffffffffffffffffffffffff1663584b153e826040518263ffffffff1660e01b8152600401611b879190613ae9565b60206040518083038186803b158015611b9f57600080fd5b505afa158015611bb3573d6000803e3d6000fd5b505050506040513d601f19601f82011682018060405250810190611bd7919061446a565b15611be757600592505050611bee565b6002925050505b919050565b7fc565b045403dc03c2eea82b81a0465edad9e2e7fc4d97e11421c209da93d7a9360025482604051611c269291906141df565b60405180910390a18060028190555050565b6000611c42611381565b611c5833600143611c539190614497565b61161f565b1015611c99576040517f08c379a0000000000000000000000000000000000000000000000000000000008152600401611c9090614563565b60405180910390fd5b6000611cae86868686805190602001206114d0565b90508451865114611cf4576040517f08c379a0000000000000000000000000000000000000000000000000000000008152600401611ceb906145f5565b60405180910390fd5b8351865114611d38576040517f08c379a0000000000000000000000000000000000000000000000000000000008152600401611d2f906145f5565b60405180910390fd5b6000865111611d7c576040517f08c379a0000000000000000000000000000000000000000000000000000000008152600401611d7390614661565b60405180910390fd5b6000600160008381526020019081526020016000209050611ddc816000016040518060200160405290816000820160009054906101000a900467ffffffffffffffff1667ffffffffffffffff1667ffffffffffffffff1681525050612aca565b611e1b576040517f08c379a0000000000000000000000000000000000000000000000000000000008152600401611e12906146f3565b60405180910390fd5b6000611e2d611e28610f00565b612ae4565b611e3643612ae4565b611e409190614727565b90506000611e54611e4f61095e565b612ae4565b82611e5f9190614727565b9050611e778284600001612b3b90919063ffffffff16565b611e8d8184600101612b3b90919063ffffffff16565b7f7d84a6263ae0d98d3329bd7b46bb4e8d6f98cd35a7adb45c274c8b7fd5ebd5e084611eb761179f565b8b8b8d5167ffffffffffffffff811115611ed457611ed361303a565b5b604051908082528060200260200182016040528015611f0757816020015b6060815260200190600190039081611ef25790505b508c88888e604051611f21999897969594939291906148a2565b60405180910390a183945050505050949350505050565b7f08f74ea46ef7894f65eabfb5e6e695de773a000b47c529ab559178069b226401600760009054906101000a900473ffffffffffffffffffffffffffffffffffffffff1682604051611f8b929190614952565b60405180910390a180600760006101000a81548173ffffffffffffffffffffffffffffffffffffffff021916908373ffffffffffffffffffffffffffffffffffffffff16021790555050565b6000600454905090565b60606120078484846040518060600160405280602981526020016151a760299139612b6a565b90509392505050565b60008111612053576040517f08c379a000000000000000000000000000000000000000000000000000000000815260040161204a906149ed565b60405180910390fd5b7f7e3f7f0708a84de9203036abaa450dccc85ad5ff52f78c170f3edb55cf5e8828600354826040516120869291906141df565b60405180910390a18060038190555050565b60007f000000000000000000000000000000000000000000000000000000000000000073ffffffffffffffffffffffffffffffffffffffff16633a46b1a884846040518363ffffffff1660e01b81526004016120f5929190614a0d565b60206040518083038186803b15801561210d57600080fd5b505afa158015612121573d6000803e3d6000fd5b505050506040513d601f19601f820116820180604052508101906121459190613d32565b905092915050565b7fccb45da8d5717e6c4544694297c4ba5cf151d455c9bb0ed4fc7a38411bc05461600454826040516121809291906141df565b60405180910390a18060048190555050565b600061219c61120a565b6121a4611213565b7f000000000000000000000000000000000000000000000000000000000000000073ffffffffffffffffffffffffffffffffffffffff16638e539e8c856040518263ffffffff1660e01b81526004016121fd9190612ea4565b60206040518083038186803b15801561221557600080fd5b505afa158015612229573d6000803e3d6000fd5b505050506040513d601f19601f8201168201806040525081019061224d9190613d32565b6122579190614a36565b6122619190614abf565b9050919050565b60007fbf26d897000000000000000000000000000000000000000000000000000000007bffffffffffffffffffffffffffffffffffffffffffffffffffffffff1916827bffffffffffffffffffffffffffffffffffffffffffffffffffffffff191614806122db57506122da82612c7e565b5b9050919050565b600760009054906101000a900473ffffffffffffffffffffffffffffffffffffffff1673ffffffffffffffffffffffffffffffffffffffff1663e38335e5348686866000876040518763ffffffff1660e01b815260040161234795949392919061403a565b6000604051808303818588803b15801561236057600080fd5b505af1158015612374573d6000803e3d6000fd5b50505050505050505050565b60007f000000000000000000000000000000000000000000000000000000000000000073ffffffffffffffffffffffffffffffffffffffff163073ffffffffffffffffffffffffffffffffffffffff161480156123fc57507f000000000000000000000000000000000000000000000000000000000000000046145b15612429577f00000000000000000000000000000000000000000000000000000000000000009050612497565b6124947f00000000000000000000000000000000000000000000000000000000000000007f00000000000000000000000000000000000000000000000000000000000000007f0000000000000000000000000000000000000000000000000000000000000000612ce8565b90505b90565b600082826040516020016124af929190614b68565b60405160208183030381529060405280519060200120905092915050565b6000807f7fffffffffffffffffffffffffffffff5d576e7357a4501ddfe92f46681b20a08360001c11156125085760006003915091506125d1565b601b8560ff16141580156125205750601c8560ff1614155b156125325760006004915091506125d1565b6000600187878787604051600081526020016040526040516125579493929190614b9f565b6020604051602081039080840390855afa158015612579573d6000803e3d6000fd5b505050602060405103519050600073ffffffffffffffffffffffffffffffffffffffff168173ffffffffffffffffffffffffffffffffffffffff1614156125c8576000600192509250506125d1565b80600092509250505b94509492505050565b600060048111156125ee576125ed6135d9565b5b816004811115612601576126006135d9565b5b141561260c576127ac565b600160048111156126205761261f6135d9565b5b816004811115612633576126326135d9565b5b1415612674576040517f08c379a000000000000000000000000000000000000000000000000000000000815260040161266b90614c30565b60405180910390fd5b60026004811115612688576126876135d9565b5b81600481111561269b5761269a6135d9565b5b14156126dc576040517f08c379a00000000000000000000000000000000000000000000000000000000081526004016126d390614c9c565b60405180910390fd5b600360048111156126f0576126ef6135d9565b5b816004811115612703576127026135d9565b5b1415612744576040517f08c379a000000000000000000000000000000000000000000000000000000000815260040161273b90614d2e565b60405180910390fd5b600480811115612757576127566135d9565b5b81600481111561276a576127696135d9565b5b14156127ab576040517f08c379a00000000000000000000000000000000000000000000000000000000081526004016127a290614dc0565b60405180910390fd5b5b50565b60006005600086815260200190815260200160002090508060030160008573ffffffffffffffffffffffffffffffffffffffff1673ffffffffffffffffffffffffffffffffffffffff16815260200190815260200160002060009054906101000a900460ff1615612855576040517f08c379a000000000000000000000000000000000000000000000000000000000815260040161284c90614e52565b60405180910390fd5b60018160030160008673ffffffffffffffffffffffffffffffffffffffff1673ffffffffffffffffffffffffffffffffffffffff16815260200190815260200160002060006101000a81548160ff021916908315150217905550600060028111156128c3576128c26135d9565b5b60ff168360ff1614156128f057818160000160008282546128e49190614189565b925050819055506129ae565b60016002811115612904576129036135d9565b5b60ff168360ff16141561293157818160010160008282546129259190614189565b925050819055506129ad565b600280811115612944576129436135d9565b5b60ff168360ff16141561297157818160020160008282546129659190614189565b925050819055506129ac565b6040517f08c379a00000000000000000000000000000000000000000000000000000000081526004016129a390614ee4565b60405180910390fd5b5b5b5050505050565b6000806001600084815260200190815260200160002090508060020160009054906101000a900460ff16156129ee576007915050612ac5565b8060020160019054906101000a900460ff1615612a0f576002915050612ac5565b6000612a1a84610e92565b90506000811415612a60576040517f08c379a0000000000000000000000000000000000000000000000000000000008152600401612a5790614f50565b60405180910390fd5b438110612a7257600092505050612ac5565b6000612a7d85611390565b9050438110612a925760019350505050612ac5565b612a9b85612d22565b8015612aac5750612aab85612d69565b5b15612abd5760049350505050612ac5565b600393505050505b919050565b600080826000015167ffffffffffffffff16149050919050565b600067ffffffffffffffff8016821115612b33576040517f08c379a0000000000000000000000000000000000000000000000000000000008152600401612b2a90614fe2565b60405180910390fd5b819050919050565b808260000160006101000a81548167ffffffffffffffff021916908367ffffffffffffffff1602179055505050565b606082471015612baf576040517f08c379a0000000000000000000000000000000000000000000000000000000008152600401612ba690615074565b60405180910390fd5b612bb885612d94565b612bf7576040517f08c379a0000000000000000000000000000000000000000000000000000000008152600401612bee906150e0565b60405180910390fd5b6000808673ffffffffffffffffffffffffffffffffffffffff168587604051612c20919061513c565b60006040518083038185875af1925050503d8060008114612c5d576040519150601f19603f3d011682016040523d82523d6000602084013e612c62565b606091505b5091509150612c72828286612db7565b92505050949350505050565b60007f01ffc9a7000000000000000000000000000000000000000000000000000000007bffffffffffffffffffffffffffffffffffffffffffffffffffffffff1916827bffffffffffffffffffffffffffffffffffffffffffffffffffffffff1916149050919050565b60008383834630604051602001612d03959493929190615153565b6040516020818303038152906040528051906020012090509392505050565b60008060056000848152602001908152602001600020905080600201548160010154612d4e9190614189565b612d5f612d5a85610e92565b6116bb565b1115915050919050565b6000806005600084815260200190815260200160002090508060000154816001015411915050919050565b6000808273ffffffffffffffffffffffffffffffffffffffff163b119050919050565b60608315612dc757829050612e17565b600083511115612dda5782518084602001fd5b816040517f08c379a0000000000000000000000000000000000000000000000000000000008152600401612e0e9190613013565b60405180910390fd5b9392505050565b6000604051905090565b600080fd5b600080fd5b6000819050919050565b612e4581612e32565b8114612e5057600080fd5b50565b600081359050612e6281612e3c565b92915050565b600060208284031215612e7e57612e7d612e28565b5b6000612e8c84828501612e53565b91505092915050565b612e9e81612e32565b82525050565b6000602082019050612eb96000830184612e95565b92915050565b60007fffffffff0000000000000000000000000000000000000000000000000000000082169050919050565b612ef481612ebf565b8114612eff57600080fd5b50565b600081359050612f1181612eeb565b92915050565b600060208284031215612f2d57612f2c612e28565b5b6000612f3b84828501612f02565b91505092915050565b60008115159050919050565b612f5981612f44565b82525050565b6000602082019050612f746000830184612f50565b92915050565b600081519050919050565b600082825260208201905092915050565b60005b83811015612fb4578082015181840152602081019050612f99565b83811115612fc3576000848401525b50505050565b6000601f19601f8301169050919050565b6000612fe582612f7a565b612fef8185612f85565b9350612fff818560208601612f96565b61300881612fc9565b840191505092915050565b6000602082019050818103600083015261302d8184612fda565b905092915050565b600080fd5b7f4e487b7100000000000000000000000000000000000000000000000000000000600052604160045260246000fd5b61307282612fc9565b810181811067ffffffffffffffff821117156130915761309061303a565b5b80604052505050565b60006130a4612e1e565b90506130b08282613069565b919050565b600067ffffffffffffffff8211156130d0576130cf61303a565b5b602082029050602081019050919050565b600080fd5b600073ffffffffffffffffffffffffffffffffffffffff82169050919050565b6000613111826130e6565b9050919050565b61312181613106565b811461312c57600080fd5b50565b60008135905061313e81613118565b92915050565b6000613157613152846130b5565b61309a565b9050808382526020820190506020840283018581111561317a576131796130e1565b5b835b818110156131a3578061318f888261312f565b84526020840193505060208101905061317c565b5050509392505050565b600082601f8301126131c2576131c1613035565b5b81356131d2848260208601613144565b91505092915050565b600067ffffffffffffffff8211156131f6576131f561303a565b5b602082029050602081019050919050565b600061321a613215846131db565b61309a565b9050808382526020820190506020840283018581111561323d5761323c6130e1565b5b835b8181101561326657806132528882612e53565b84526020840193505060208101905061323f565b5050509392505050565b600082601f83011261328557613284613035565b5b8135613295848260208601613207565b91505092915050565b600067ffffffffffffffff8211156132b9576132b861303a565b5b602082029050602081019050919050565b600080fd5b600067ffffffffffffffff8211156132ea576132e961303a565b5b6132f382612fc9565b9050602081019050919050565b82818337600083830152505050565b600061332261331d846132cf565b61309a565b90508281526020810184848401111561333e5761333d6132ca565b5b613349848285613300565b509392505050565b600082601f83011261336657613365613035565b5b813561337684826020860161330f565b91505092915050565b600061339261338d8461329e565b61309a565b905080838252602082019050602084028301858111156133b5576133b46130e1565b5b835b818110156133fc57803567ffffffffffffffff8111156133da576133d9613035565b5b8086016133e78982613351565b855260208501945050506020810190506133b7565b5050509392505050565b600082601f83011261341b5761341a613035565b5b813561342b84826020860161337f565b91505092915050565b6000819050919050565b61344781613434565b811461345257600080fd5b50565b6000813590506134648161343e565b92915050565b6000806000806080858703121561348457613483612e28565b5b600085013567ffffffffffffffff8111156134a2576134a1612e2d565b5b6134ae878288016131ad565b945050602085013567ffffffffffffffff8111156134cf576134ce612e2d565b5b6134db87828801613270565b935050604085013567ffffffffffffffff8111156134fc576134fb612e2d565b5b61350887828801613406565b925050606061351987828801613455565b91505092959194509250565b600060ff82169050919050565b61353b81613525565b811461354657600080fd5b50565b60008135905061355881613532565b92915050565b600080600080600060a0868803121561357a57613579612e28565b5b600061358888828901612e53565b955050602061359988828901613549565b94505060406135aa88828901613549565b93505060606135bb88828901613455565b92505060806135cc88828901613455565b9150509295509295909350565b7f4e487b7100000000000000000000000000000000000000000000000000000000600052602160045260246000fd5b60088110613619576136186135d9565b5b50565b600081905061362a82613608565b919050565b600061363a8261361c565b9050919050565b61364a8161362f565b82525050565b60006020820190506136656000830184613641565b92915050565b6000806040838503121561368257613681612e28565b5b600061369085828601612e53565b92505060206136a18582860161312f565b9150509250929050565b60006060820190506136c06000830186612e95565b6136cd6020830185612e95565b6136da6040830184612e95565b949350505050565b600080604083850312156136f9576136f8612e28565b5b600061370785828601612e53565b925050602061371885828601613549565b9150509250929050565b600080fd5b60008083601f84011261373d5761373c613035565b5b8235905067ffffffffffffffff81111561375a57613759613722565b5b602083019150836001820283011115613776576137756130e1565b5b9250929050565b6000806000806060858703121561379757613796612e28565b5b60006137a587828801612e53565b94505060206137b687828801613549565b935050604085013567ffffffffffffffff8111156137d7576137d6612e2d565b5b6137e387828801613727565b925092505092959194509250565b600067ffffffffffffffff82111561380c5761380b61303a565b5b61381582612fc9565b9050602081019050919050565b6000613835613830846137f1565b61309a565b905082815260208101848484011115613851576138506132ca565b5b61385c848285613300565b509392505050565b600082601f83011261387957613878613035565b5b8135613889848260208601613822565b91505092915050565b600080600080608085870312156138ac576138ab612e28565b5b600085013567ffffffffffffffff8111156138ca576138c9612e2d565b5b6138d6878288016131ad565b945050602085013567ffffffffffffffff8111156138f7576138f6612e2d565b5b61390387828801613270565b935050604085013567ffffffffffffffff81111561392457613923612e2d565b5b61393087828801613406565b925050606085013567ffffffffffffffff81111561395157613950612e2d565b5b61395d87828801613864565b91505092959194509250565b6000613974826130e6565b9050919050565b600061398682613969565b9050919050565b6139968161397b565b81146139a157600080fd5b50565b6000813590506139b38161398d565b92915050565b6000602082840312156139cf576139ce612e28565b5b60006139dd848285016139a4565b91505092915050565b60008083601f8401126139fc576139fb613035565b5b8235905067ffffffffffffffff811115613a1957613a18613722565b5b602083019150836001820283011115613a3557613a346130e1565b5b9250929050565b60008060008060608587031215613a5657613a55612e28565b5b6000613a648782880161312f565b9450506020613a7587828801612e53565b935050604085013567ffffffffffffffff811115613a9657613a95612e2d565b5b613aa2878288016139e6565b925092505092959194509250565b613ab981613106565b82525050565b6000602082019050613ad46000830184613ab0565b92915050565b613ae381613434565b82525050565b6000602082019050613afe6000830184613ada565b92915050565b60008060408385031215613b1b57613b1a612e28565b5b6000613b298582860161312f565b9250506020613b3a85828601612e53565b9150509250929050565b6000819050919050565b6000613b69613b64613b5f846130e6565b613b44565b6130e6565b9050919050565b6000613b7b82613b4e565b9050919050565b6000613b8d82613b70565b9050919050565b613b9d81613b82565b82525050565b6000602082019050613bb86000830184613b94565b92915050565b7f476f7665726e6f723a206f6e6c79476f7665726e616e63650000000000000000600082015250565b6000613bf4601883612f85565b9150613bff82613bbe565b602082019050919050565b60006020820190508181036000830152613c2381613be7565b9050919050565b7f4e487b7100000000000000000000000000000000000000000000000000000000600052602260045260246000fd5b60006002820490506001821680613c7157607f821691505b60208210811415613c8557613c84613c2a565b5b50919050565b7f476f7665726e6f723a2070726f706f73616c206e6f742073756363657373667560008201527f6c00000000000000000000000000000000000000000000000000000000000000602082015250565b6000613ce7602183612f85565b9150613cf282613c8b565b604082019050919050565b60006020820190508181036000830152613d1681613cda565b9050919050565b600081519050613d2c81612e3c565b92915050565b600060208284031215613d4857613d47612e28565b5b6000613d5684828501613d1d565b91505092915050565b600081519050919050565b600082825260208201905092915050565b6000819050602082019050919050565b613d9481613106565b82525050565b6000613da68383613d8b565b60208301905092915050565b6000602082019050919050565b6000613dca82613d5f565b613dd48185613d6a565b9350613ddf83613d7b565b8060005b83811015613e10578151613df78882613d9a565b9750613e0283613db2565b925050600181019050613de3565b5085935050505092915050565b600081519050919050565b600082825260208201905092915050565b6000819050602082019050919050565b613e5281612e32565b82525050565b6000613e648383613e49565b60208301905092915050565b6000602082019050919050565b6000613e8882613e1d565b613e928185613e28565b9350613e9d83613e39565b8060005b83811015613ece578151613eb58882613e58565b9750613ec083613e70565b925050600181019050613ea1565b5085935050505092915050565b600081519050919050565b600082825260208201905092915050565b6000819050602082019050919050565b600081519050919050565b600082825260208201905092915050565b6000613f2e82613f07565b613f388185613f12565b9350613f48818560208601612f96565b613f5181612fc9565b840191505092915050565b6000613f688383613f23565b905092915050565b6000602082019050919050565b6000613f8882613edb565b613f928185613ee6565b935083602082028501613fa485613ef7565b8060005b85811015613fe05784840389528151613fc18582613f5c565b9450613fcc83613f70565b925060208a01995050600181019050613fa8565b50829750879550505050505092915050565b6000819050919050565b60008160001b9050919050565b600061402461401f61401a84613ff2565b613ffc565b613434565b9050919050565b61403481614009565b82525050565b600060a08201905081810360008301526140548188613dbf565b905081810360208301526140688187613e7d565b9050818103604083015261407c8186613f7d565b905061408b606083018561402b565b6140986080830184613ada565b9695505050505050565b6000815190506140b18161343e565b92915050565b6000602082840312156140cd576140cc612e28565b5b60006140db848285016140a2565b91505092915050565b600060c08201905081810360008301526140fe8189613dbf565b905081810360208301526141128188613e7d565b905081810360408301526141268187613f7d565b9050614135606083018661402b565b6141426080830185613ada565b61414f60a0830184612e95565b979650505050505050565b7f4e487b7100000000000000000000000000000000000000000000000000000000600052601160045260246000fd5b600061419482612e32565b915061419f83612e32565b9250827fffffffffffffffffffffffffffffffffffffffffffffffffffffffffffffffff038211156141d4576141d361415a565b5b828201905092915050565b60006040820190506141f46000830185612e95565b6142016020830184612e95565b9392505050565b61421181613525565b82525050565b600060608201905061422c6000830186613ada565b6142396020830185612e95565b6142466040830184614208565b949350505050565b600060808201905081810360008301526142688187613dbf565b9050818103602083015261427c8186613e7d565b905081810360408301526142908185613f7d565b905061429f6060830184613ada565b95945050505050565b7f476f7665726e6f72566f74657351756f72756d4672616374696f6e3a2071756f60008201527f72756d4e756d657261746f72206f7665722071756f72756d44656e6f6d696e6160208201527f746f720000000000000000000000000000000000000000000000000000000000604082015250565b600061432a604383612f85565b9150614335826142a8565b606082019050919050565b600060208201905081810360008301526143598161431d565b9050919050565b7f476f7665726e6f723a20766f7465206e6f742063757272656e746c792061637460008201527f6976650000000000000000000000000000000000000000000000000000000000602082015250565b60006143bc602383612f85565b91506143c782614360565b604082019050919050565b600060208201905081810360008301526143eb816143af565b9050919050565b60006080820190506144076000830187612e95565b6144146020830186614208565b6144216040830185612e95565b81810360608301526144338184612fda565b905095945050505050565b61444781612f44565b811461445257600080fd5b50565b6000815190506144648161443e565b92915050565b6000602082840312156144805761447f612e28565b5b600061448e84828501614455565b91505092915050565b60006144a282612e32565b91506144ad83612e32565b9250828210156144c0576144bf61415a565b5b828203905092915050565b7f476f7665726e6f72436f6d7061746962696c697479427261766f3a2070726f7060008201527f6f73657220766f7465732062656c6f772070726f706f73616c2074687265736860208201527f6f6c640000000000000000000000000000000000000000000000000000000000604082015250565b600061454d604383612f85565b9150614558826144cb565b606082019050919050565b6000602082019050818103600083015261457c81614540565b9050919050565b7f476f7665726e6f723a20696e76616c69642070726f706f73616c206c656e677460008201527f6800000000000000000000000000000000000000000000000000000000000000602082015250565b60006145df602183612f85565b91506145ea82614583565b604082019050919050565b6000602082019050818103600083015261460e816145d2565b9050919050565b7f476f7665726e6f723a20656d7074792070726f706f73616c0000000000000000600082015250565b600061464b601883612f85565b915061465682614615565b602082019050919050565b6000602082019050818103600083015261467a8161463e565b9050919050565b7f476f7665726e6f723a2070726f706f73616c20616c726561647920657869737460008201527f7300000000000000000000000000000000000000000000000000000000000000602082015250565b60006146dd602183612f85565b91506146e882614681565b604082019050919050565b6000602082019050818103600083015261470c816146d0565b9050919050565b600067ffffffffffffffff82169050919050565b600061473282614713565b915061473d83614713565b92508267ffffffffffffffff0382111561475a5761475961415a565b5b828201905092915050565b600081519050919050565b600082825260208201905092915050565b6000819050602082019050919050565b600082825260208201905092915050565b60006147ad82612f7a565b6147b78185614791565b93506147c7818560208601612f96565b6147d081612fc9565b840191505092915050565b60006147e783836147a2565b905092915050565b6000602082019050919050565b600061480782614765565b6148118185614770565b93508360208202850161482385614781565b8060005b8581101561485f578484038952815161484085826147db565b945061484b836147ef565b925060208a01995050600181019050614827565b50829750879550505050505092915050565b600061488c61488761488284614713565b613b44565b612e32565b9050919050565b61489c81614871565b82525050565b6000610120820190506148b8600083018c612e95565b6148c5602083018b613ab0565b81810360408301526148d7818a613dbf565b905081810360608301526148eb8189613e7d565b905081810360808301526148ff81886147fc565b905081810360a08301526149138187613f7d565b905061492260c0830186614893565b61492f60e0830185614893565b8181036101008301526149428184612fda565b90509a9950505050505050505050565b60006040820190506149676000830185613ab0565b6149746020830184613ab0565b9392505050565b7f476f7665726e6f7253657474696e67733a20766f74696e6720706572696f642060008201527f746f6f206c6f7700000000000000000000000000000000000000000000000000602082015250565b60006149d7602783612f85565b91506149e28261497b565b604082019050919050565b60006020820190508181036000830152614a06816149ca565b9050919050565b6000604082019050614a226000830185613ab0565b614a2f6020830184612e95565b9392505050565b6000614a4182612e32565b9150614a4c83612e32565b9250817fffffffffffffffffffffffffffffffffffffffffffffffffffffffffffffffff0483118215151615614a8557614a8461415a565b5b828202905092915050565b7f4e487b7100000000000000000000000000000000000000000000000000000000600052601260045260246000fd5b6000614aca82612e32565b9150614ad583612e32565b925082614ae557614ae4614a90565b5b828204905092915050565b600081905092915050565b7f1901000000000000000000000000000000000000000000000000000000000000600082015250565b6000614b31600283614af0565b9150614b3c82614afb565b600282019050919050565b6000819050919050565b614b62614b5d82613434565b614b47565b82525050565b6000614b7382614b24565b9150614b7f8285614b51565b602082019150614b8f8284614b51565b6020820191508190509392505050565b6000608082019050614bb46000830187613ada565b614bc16020830186614208565b614bce6040830185613ada565b614bdb6060830184613ada565b95945050505050565b7f45434453413a20696e76616c6964207369676e61747572650000000000000000600082015250565b6000614c1a601883612f85565b9150614c2582614be4565b602082019050919050565b60006020820190508181036000830152614c4981614c0d565b9050919050565b7f45434453413a20696e76616c6964207369676e6174757265206c656e67746800600082015250565b6000614c86601f83612f85565b9150614c9182614c50565b602082019050919050565b60006020820190508181036000830152614cb581614c79565b9050919050565b7f45434453413a20696e76616c6964207369676e6174757265202773272076616c60008201527f7565000000000000000000000000000000000000000000000000000000000000602082015250565b6000614d18602283612f85565b9150614d2382614cbc565b604082019050919050565b60006020820190508181036000830152614d4781614d0b565b9050919050565b7f45434453413a20696e76616c6964207369676e6174757265202776272076616c60008201527f7565000000000000000000000000000000000000000000000000000000000000602082015250565b6000614daa602283612f85565b9150614db582614d4e565b604082019050919050565b60006020820190508181036000830152614dd981614d9d565b9050919050565b7f476f7665726e6f72566f74696e6753696d706c653a20766f746520616c72656160008201527f6479206361737400000000000000000000000000000000000000000000000000602082015250565b6000614e3c602783612f85565b9150614e4782614de0565b604082019050919050565b60006020820190508181036000830152614e6b81614e2f565b9050919050565b7f476f7665726e6f72566f74696e6753696d706c653a20696e76616c696420766160008201527f6c756520666f7220656e756d20566f7465547970650000000000000000000000602082015250565b6000614ece603583612f85565b9150614ed982614e72565b604082019050919050565b60006020820190508181036000830152614efd81614ec1565b9050919050565b7f476f7665726e6f723a20756e6b6e6f776e2070726f706f73616c206964000000600082015250565b6000614f3a601d83612f85565b9150614f4582614f04565b602082019050919050565b60006020820190508181036000830152614f6981614f2d565b9050919050565b7f53616665436173743a2076616c756520646f65736e27742066697420696e203660008201527f3420626974730000000000000000000000000000000000000000000000000000602082015250565b6000614fcc602683612f85565b9150614fd782614f70565b604082019050919050565b60006020820190508181036000830152614ffb81614fbf565b9050919050565b7f416464726573733a20696e73756666696369656e742062616c616e636520666f60008201527f722063616c6c0000000000000000000000000000000000000000000000000000602082015250565b600061505e602683612f85565b915061506982615002565b604082019050919050565b6000602082019050818103600083015261508d81615051565b9050919050565b7f416464726573733a2063616c6c20746f206e6f6e2d636f6e7472616374000000600082015250565b60006150ca601d83612f85565b91506150d582615094565b602082019050919050565b600060208201905081810360008301526150f9816150bd565b9050919050565b600081905092915050565b600061511682613f07565b6151208185615100565b9350615130818560208601612f96565b80840191505092915050565b6000615148828461510b565b915081905092915050565b600060a0820190506151686000830188613ada565b6151756020830187613ada565b6151826040830186613ada565b61518f6060830185612e95565b61519c6080830184613ab0565b969550505050505056fe416464726573733a206c6f772d6c6576656c2063616c6c20776974682076616c7565206661696c6564a26469706673582212203b2da152b747c6d8032cf13cc6a826b40d2e9b26b7271e0a9d3a8ee6f28efa9464736f6c63430008080033",
  "linkReferences": {},
  "deployedLinkReferences": {}
}